{"abi":[{"type":"function","name":"getTransactionsCount","inputs":[],"outputs":[{"name":"","type":"uint256","internalType":"uint256"}],"stateMutability":"view"},{"type":"function","name":"transactions","inputs":[{"name":"_idx","type":"uint256","internalType":"uint256"}],"outputs":[{"name":"","type":"tuple","internalType":"struct Tx","components":[{"name":"txType","type":"uint8","internalType":"enum TxType"},{"name":"txData","type":"bytes","internalType":"bytes"}]}],"stateMutability":"view"}],"bytecode":{"object":"0x608060405234801561001057600080fd5b506102b5806100206000396000f3fe608060405234801561001057600080fd5b50600436106100365760003560e01c8063578cb8f91461003b5780639ace38c214610070575b600080fd5b7f71f1fe694a9df70ef705bc11814f6781de2e3fa2c2b924be3586437aea382f5c546040519081526020015b60405180910390f35b61008361007e3660046101b7565b610090565b60405161006791906101e6565b6040805180820190915260008152606060208201527f71f1fe694a9df70ef705bc11814f6781de2e3fa2c2b924be3586437aea382f5c82815481106100d7576100d7610265565b60009182526020909120604080518082019091526002909202018054829060ff166009811115610109576101096101d0565b600981111561011a5761011a6101d0565b815260200160018201805461012e9061027b565b80601f016020809104026020016040519081016040528092919081815260200182805461015a9061027b565b80156101a75780601f1061017c576101008083540402835291602001916101a7565b820191906000526020600020905b81548152906001019060200180831161018a57829003601f168201915b5050505050815250509050919050565b6000602082840312156101c957600080fd5b5035919050565b634e487b7160e01b600052602160045260246000fd5b600060208083528351600a811061020d57634e487b7160e01b600052602160045260246000fd5b838201528381015160408085015280516060850181905260005b8181101561024357828101840151868201608001528301610227565b506000608082870101526080601f19601f830116860101935050505092915050565b634e487b7160e01b600052603260045260246000fd5b600181811c9082168061028f57607f821691505b6020821081036102af57634e487b7160e01b600052602260045260246000fd5b5091905056","linkReferences":{}},"methodIdentifiers":{"getTransactionsCount()":"578cb8f9","transactions(uint256)":"9ace38c2"},"id":11}