{"abi":[{"type":"function","name":"acceptStock","inputs":[{"name":"stakeholderId","type":"bytes16","internalType":"bytes16"},{"name":"stockClassId","type":"bytes16","internalType":"bytes16"},{"name":"securityId","type":"bytes16","internalType":"bytes16"},{"name":"comments","type":"string[]","internalType":"string[]"}],"outputs":[],"stateMutability":"nonpayable"},{"type":"function","name":"addAdmin","inputs":[{"name":"addr","type":"address","internalType":"address"}],"outputs":[],"stateMutability":"nonpayable"},{"type":"function","name":"addOperator","inputs":[{"name":"addr","type":"address","internalType":"address"}],"outputs":[],"stateMutability":"nonpayable"},{"type":"function","name":"adjustIssuerAuthorizedShares","inputs":[{"name":"newSharesAuthorized","type":"uint256","internalType":"uint256"},{"name":"comments","type":"string[]","internalType":"string[]"},{"name":"boardApprovalDate","type":"string","internalType":"string"},{"name":"stockholderApprovalDate","type":"string","internalType":"string"}],"outputs":[],"stateMutability":"nonpayable"},{"type":"function","name":"adjustStockClassAuthorizedShares","inputs":[{"name":"stockClassId","type":"bytes16","internalType":"bytes16"},{"name":"newAuthorizedShares","type":"uint256","internalType":"uint256"},{"name":"comments","type":"string[]","internalType":"string[]"},{"name":"boardApprovalDate","type":"string","internalType":"string"},{"name":"stockholderApprovalDate","type":"string","internalType":"string"}],"outputs":[],"stateMutability":"nonpayable"},{"type":"function","name":"cancelStock","inputs":[{"name":"params","type":"tuple","internalType":"struct StockParams","components":[{"name":"stakeholder_id","type":"bytes16","internalType":"bytes16"},{"name":"stock_class_id","type":"bytes16","internalType":"bytes16"},{"name":"security_id","type":"bytes16","internalType":"bytes16"},{"name":"comments","type":"string[]","internalType":"string[]"},{"name":"reason_text","type":"string","internalType":"string"}]},{"name":"quantity","type":"uint256","internalType":"uint256"}],"outputs":[],"stateMutability":"nonpayable"},{"type":"function","name":"createStockClass","inputs":[{"name":"_id","type":"bytes16","internalType":"bytes16"},{"name":"_class_type","type":"string","internalType":"string"},{"name":"_price_per_share","type":"uint256","internalType":"uint256"},{"name":"_initial_share_authorized","type":"uint256","internalType":"uint256"}],"outputs":[],"stateMutability":"nonpayable"},{"type":"function","name":"createStockLegendTemplate","inputs":[{"name":"_id","type":"bytes16","internalType":"bytes16"}],"outputs":[],"stateMutability":"nonpayable"},{"type":"function","name":"getActivePosition","inputs":[{"name":"stakeholderId","type":"bytes16","internalType":"bytes16"},{"name":"securityId","type":"bytes16","internalType":"bytes16"}],"outputs":[{"name":"","type":"bytes16","internalType":"bytes16"},{"name":"","type":"uint256","internalType":"uint256"},{"name":"","type":"uint256","internalType":"uint256"},{"name":"","type":"uint40","internalType":"uint40"}],"stateMutability":"view"},{"type":"function","name":"getAveragePosition","inputs":[{"name":"stakeholderId","type":"bytes16","internalType":"bytes16"},{"name":"stockClassId","type":"bytes16","internalType":"bytes16"}],"outputs":[{"name":"","type":"uint256","internalType":"uint256"},{"name":"","type":"uint256","internalType":"uint256"},{"name":"","type":"uint40","internalType":"uint40"}],"stateMutability":"view"},{"type":"function","name":"getRoleAdmin","inputs":[{"name":"role","type":"bytes32","internalType":"bytes32"}],"outputs":[{"name":"","type":"bytes32","internalType":"bytes32"}],"stateMutability":"view"},{"type":"function","name":"getRoleMember","inputs":[{"name":"role","type":"bytes32","internalType":"bytes32"},{"name":"index","type":"uint256","internalType":"uint256"}],"outputs":[{"name":"","type":"address","internalType":"address"}],"stateMutability":"view"},{"type":"function","name":"getRoleMemberCount","inputs":[{"name":"role","type":"bytes32","internalType":"bytes32"}],"outputs":[{"name":"","type":"uint256","internalType":"uint256"}],"stateMutability":"view"},{"type":"function","name":"getStockClassById","inputs":[{"name":"_id","type":"bytes16","internalType":"bytes16"}],"outputs":[{"name":"","type":"bytes16","internalType":"bytes16"},{"name":"","type":"string","internalType":"string"},{"name":"","type":"uint256","internalType":"uint256"},{"name":"","type":"uint256","internalType":"uint256"},{"name":"","type":"uint256","internalType":"uint256"}],"stateMutability":"view"},{"type":"function","name":"getTotalActiveSecuritiesCount","inputs":[],"outputs":[{"name":"","type":"uint256","internalType":"uint256"}],"stateMutability":"view"},{"type":"function","name":"getTotalNumberOfStockClasses","inputs":[],"outputs":[{"name":"","type":"uint256","internalType":"uint256"}],"stateMutability":"view"},{"type":"function","name":"grantRole","inputs":[{"name":"role","type":"bytes32","internalType":"bytes32"},{"name":"account","type":"address","internalType":"address"}],"outputs":[],"stateMutability":"nonpayable"},{"type":"function","name":"hasRole","inputs":[{"name":"role","type":"bytes32","internalType":"bytes32"},{"name":"account","type":"address","internalType":"address"}],"outputs":[{"name":"","type":"bool","internalType":"bool"}],"stateMutability":"view"},{"type":"function","name":"issueStock","inputs":[{"name":"params","type":"tuple","internalType":"struct StockIssuanceParams","components":[{"name":"stock_class_id","type":"bytes16","internalType":"bytes16"},{"name":"stock_plan_id","type":"bytes16","internalType":"bytes16"},{"name":"share_numbers_issued","type":"tuple","internalType":"struct ShareNumbersIssued","components":[{"name":"starting_share_number","type":"uint256","internalType":"uint256"},{"name":"ending_share_number","type":"uint256","internalType":"uint256"}]},{"name":"share_price","type":"uint256","internalType":"uint256"},{"name":"quantity","type":"uint256","internalType":"uint256"},{"name":"vesting_terms_id","type":"bytes16","internalType":"bytes16"},{"name":"cost_basis","type":"uint256","internalType":"uint256"},{"name":"stock_legend_ids","type":"bytes16[]","internalType":"bytes16[]"},{"name":"issuance_type","type":"string","internalType":"string"},{"name":"comments","type":"string[]","internalType":"string[]"},{"name":"custom_id","type":"string","internalType":"string"},{"name":"stakeholder_id","type":"bytes16","internalType":"bytes16"},{"name":"board_approval_date","type":"string","internalType":"string"},{"name":"stockholder_approval_date","type":"string","internalType":"string"},{"name":"consideration_text","type":"string","internalType":"string"},{"name":"security_law_exemptions","type":"string[]","internalType":"string[]"}]}],"outputs":[],"stateMutability":"nonpayable"},{"type":"function","name":"reissueStock","inputs":[{"name":"params","type":"tuple","internalType":"struct StockParams","components":[{"name":"stakeholder_id","type":"bytes16","internalType":"bytes16"},{"name":"stock_class_id","type":"bytes16","internalType":"bytes16"},{"name":"security_id","type":"bytes16","internalType":"bytes16"},{"name":"comments","type":"string[]","internalType":"string[]"},{"name":"reason_text","type":"string","internalType":"string"}]},{"name":"resulting_security_ids","type":"bytes16[]","internalType":"bytes16[]"}],"outputs":[],"stateMutability":"nonpayable"},{"type":"function","name":"removeAdmin","inputs":[{"name":"addr","type":"address","internalType":"address"}],"outputs":[],"stateMutability":"nonpayable"},{"type":"function","name":"removeOperator","inputs":[{"name":"addr","type":"address","internalType":"address"}],"outputs":[],"stateMutability":"nonpayable"},{"type":"function","name":"renounceRole","inputs":[{"name":"role","type":"bytes32","internalType":"bytes32"}],"outputs":[],"stateMutability":"nonpayable"},{"type":"function","name":"repurchaseStock","inputs":[{"name":"params","type":"tuple","internalType":"struct StockParams","components":[{"name":"stakeholder_id","type":"bytes16","internalType":"bytes16"},{"name":"stock_class_id","type":"bytes16","internalType":"bytes16"},{"name":"security_id","type":"bytes16","internalType":"bytes16"},{"name":"comments","type":"string[]","internalType":"string[]"},{"name":"reason_text","type":"string","internalType":"string"}]},{"name":"quantity","type":"uint256","internalType":"uint256"},{"name":"price","type":"uint256","internalType":"uint256"}],"outputs":[],"stateMutability":"nonpayable"},{"type":"function","name":"retractStockIssuance","inputs":[{"name":"params","type":"tuple","internalType":"struct StockParams","components":[{"name":"stakeholder_id","type":"bytes16","internalType":"bytes16"},{"name":"stock_class_id","type":"bytes16","internalType":"bytes16"},{"name":"security_id","type":"bytes16","internalType":"bytes16"},{"name":"comments","type":"string[]","internalType":"string[]"},{"name":"reason_text","type":"string","internalType":"string"}]}],"outputs":[],"stateMutability":"nonpayable"},{"type":"function","name":"revokeRole","inputs":[{"name":"role","type":"bytes32","internalType":"bytes32"},{"name":"account","type":"address","internalType":"address"}],"outputs":[],"stateMutability":"nonpayable"},{"type":"function","name":"seedMultipleActivePositionsAndSecurityIds","inputs":[{"name":"stakeholderIds","type":"bytes16[]","internalType":"bytes16[]"},{"name":"securityIds","type":"bytes16[]","internalType":"bytes16[]"},{"name":"stockClassIds","type":"bytes16[]","internalType":"bytes16[]"},{"name":"quantities","type":"uint256[]","internalType":"uint256[]"},{"name":"sharePrices","type":"uint256[]","internalType":"uint256[]"},{"name":"timestamps","type":"uint40[]","internalType":"uint40[]"}],"outputs":[],"stateMutability":"nonpayable"},{"type":"function","name":"seedSharesAuthorizedAndIssued","inputs":[{"name":"params","type":"tuple","internalType":"struct InitialShares","components":[{"name":"issuerInitialShares","type":"tuple","internalType":"struct IssuerInitialShares","components":[{"name":"shares_authorized","type":"uint256","internalType":"uint256"},{"name":"shares_issued","type":"uint256","internalType":"uint256"}]},{"name":"stockClassesInitialShares","type":"tuple[]","internalType":"struct StockClassInitialShares[]","components":[{"name":"id","type":"bytes16","internalType":"bytes16"},{"name":"shares_authorized","type":"uint256","internalType":"uint256"},{"name":"shares_issued","type":"uint256","internalType":"uint256"}]}]}],"outputs":[],"stateMutability":"nonpayable"},{"type":"function","name":"transferStock","inputs":[{"name":"transferorStakeholderId","type":"bytes16","internalType":"bytes16"},{"name":"transfereeStakeholderId","type":"bytes16","internalType":"bytes16"},{"name":"stockClassId","type":"bytes16","internalType":"bytes16"},{"name":"isBuyerVerified","type":"bool","internalType":"bool"},{"name":"quantity","type":"uint256","internalType":"uint256"},{"name":"share_price","type":"uint256","internalType":"uint256"}],"outputs":[],"stateMutability":"nonpayable"},{"type":"event","name":"RoleAdminChanged","inputs":[{"name":"role","type":"bytes32","indexed":true,"internalType":"bytes32"},{"name":"previousAdminRole","type":"bytes32","indexed":true,"internalType":"bytes32"},{"name":"newAdminRole","type":"bytes32","indexed":true,"internalType":"bytes32"}],"anonymous":false},{"type":"event","name":"RoleGranted","inputs":[{"name":"role","type":"bytes32","indexed":true,"internalType":"bytes32"},{"name":"account","type":"address","indexed":true,"internalType":"address"},{"name":"sender","type":"address","indexed":true,"internalType":"address"}],"anonymous":false},{"type":"event","name":"RoleRevoked","inputs":[{"name":"role","type":"bytes32","indexed":true,"internalType":"bytes32"},{"name":"account","type":"address","indexed":true,"internalType":"address"},{"name":"sender","type":"address","indexed":true,"internalType":"address"}],"anonymous":false},{"type":"event","name":"StockClassCreated","inputs":[{"name":"id","type":"bytes16","indexed":true,"internalType":"bytes16"},{"name":"classType","type":"string","indexed":true,"internalType":"string"},{"name":"pricePerShare","type":"uint256","indexed":true,"internalType":"uint256"},{"name":"initialSharesAuthorized","type":"uint256","indexed":false,"internalType":"uint256"}],"anonymous":false},{"type":"event","name":"TxCreated","inputs":[{"name":"index","type":"uint256","indexed":false,"internalType":"uint256"},{"name":"txType","type":"uint8","indexed":false,"internalType":"enum TxType"},{"name":"txData","type":"bytes","indexed":false,"internalType":"bytes"}],"anonymous":false},{"type":"error","name":"ActivePositionNotFound","inputs":[{"name":"stakeholderId","type":"bytes16","internalType":"bytes16"},{"name":"securityId","type":"bytes16","internalType":"bytes16"}]},{"type":"error","name":"EnumerableSet__IndexOutOfBounds","inputs":[]},{"type":"error","name":"InsufficientShares","inputs":[{"name":"available","type":"uint256","internalType":"uint256"},{"name":"required","type":"uint256","internalType":"uint256"}]},{"type":"error","name":"InvalidQuantityOrPrice","inputs":[{"name":"quantity","type":"uint256","internalType":"uint256"},{"name":"price","type":"uint256","internalType":"uint256"}]},{"type":"error","name":"InvalidStockClass","inputs":[{"name":"stock_class_id","type":"bytes16","internalType":"bytes16"}]},{"type":"error","name":"NoActivePositionFound","inputs":[]},{"type":"error","name":"NoIssuanceFound","inputs":[]},{"type":"error","name":"NoStakeholder","inputs":[{"name":"stakeholder_id","type":"bytes16","internalType":"bytes16"}]},{"type":"error","name":"StockClassAlreadyExists","inputs":[{"name":"stock_class_id","type":"bytes16","internalType":"bytes16"}]},{"type":"error","name":"UintUtils__InsufficientPadding","inputs":[]},{"type":"error","name":"UnverifiedBuyer","inputs":[]}],"bytecode":{"object":"0x608060405234801561001057600080fd5b506158a680620000216000396000f3fe608060405234801561001057600080fd5b50600436106101cf5760003560e01c80637048027511610104578063a1fc8196116100a2578063c93fed6611610071578063c93fed661461043b578063ca15c8731461044e578063d547741f14610461578063efb875191461047457600080fd5b8063a1fc8196146103cd578063ac8a584a14610402578063b6238cd114610415578063c1ad1d201461042857600080fd5b80639010d07c116100de5780639010d07c1461035957806391d1485414610384578063924a750e146103a75780639870d7fe146103ba57600080fd5b806370480275146103205780637799960d146103335780638bb9c5bf1461034657600080fd5b80633e4106f3116101715780634d21af641161014b5780634d21af64146102b857806361dc98b9146102c057806363aefa5a146102d35780636924e4281461031857600080fd5b80633e4106f31461027f578063438fd5d8146102925780634afd58fa146102a557600080fd5b8063248a9ca3116101ad578063248a9ca31461020f5780632f2ff15d14610235578063371dc885146102485780633cec69df1461026c57600080fd5b806308748030146101d45780630c22d6bb146101e95780631785f53c146101fc575b600080fd5b6101e76101e236600461412e565b610487565b005b6101e76101f736600461429d565b6104de565b6101e761020a366004614317565b61052e565b61022261021d366004614332565b61057c565b6040519081526020015b60405180910390f35b6101e761024336600461434b565b61058d565b61025b610256366004614377565b6105ae565b60405161022c9594939291906143f0565b6101e761027a366004614430565b6105d4565b6101e761028d36600461456c565b6105dd565b6101e76102a03660046145da565b610631565b6101e76102b336600461461e565b61067d565b6102226106ad565b6101e76102ce36600461467b565b6106bc565b6102e66102e13660046146e8565b610714565b604080516001600160801b0319909516855260208501939093529183015264ffffffffff16606082015260800161022c565b610222610734565b6101e761032e366004614317565b61073e565b6101e7610341366004614712565b61078c565b6101e7610354366004614332565b6107d7565b61036c61036736600461474e565b6107e0565b6040516001600160a01b03909116815260200161022c565b61039761039236600461434b565b6107f3565b604051901515815260200161022c565b6101e76103b53660046147bb565b6107ff565b6101e76103c8366004614317565b610845565b6103e06103db3660046146e8565b610881565b60408051938452602084019290925264ffffffffff169082015260600161022c565b6101e7610410366004614317565b61089d565b6101e76104233660046148f8565b6108d9565b6101e7610436366004614377565b610909565b6101e761044936600461497d565b610936565b61022261045c366004614332565b610983565b6101e761046f36600461434b565b61098e565b6101e76104823660046149ca565b6109aa565b61049f600080516020615835833981519152336109e2565b806104ad57506104ad610a07565b6104d25760405162461bcd60e51b81526004016104c990614a6c565b60405180910390fd5b6104db81610a33565b50565b6104f6600080516020615835833981519152336109e2565b806105045750610504610a07565b6105205760405162461bcd60e51b81526004016104c990614a6c565b61052a8282610c09565b5050565b610536610a07565b6105525760405162461bcd60e51b81526004016104c990614aa3565b6104db7fdf8b4c520ffe197c5343c6f5aec59570151ef9a492f2c624fd45ddde6135ec4282610c8f565b600061058782610cf1565b92915050565b61059682610cf1565b61059f81610d13565b6105a98383610d1d565b505050565b6000606060008060006105c086610d7f565b945094509450945094505b91939590929450565b6104db81610f43565b6105f5600080516020615835833981519152336109e2565b806106035750610603610a07565b61061f5760405162461bcd60e51b81526004016104c990614a6c565b61062b8484848461112e565b50505050565b610649600080516020615835833981519152336109e2565b806106575750610657610a07565b6106735760405162461bcd60e51b81526004016104c990614a6c565b61052a82826111f1565b610685610a07565b6106a15760405162461bcd60e51b81526004016104c990614aa3565b61062b84848484611322565b60006106b7611457565b905090565b6106d4600080516020615835833981519152336109e2565b806106e257506106e2610a07565b6106fe5760405162461bcd60e51b81526004016104c990614a6c565b61070c868686868686611564565b505050505050565b6000806000806107248686611610565b9299919850965090945092505050565b60006106b761167b565b610746610a07565b6107625760405162461bcd60e51b81526004016104c990614aa3565b6104db7fdf8b4c520ffe197c5343c6f5aec59570151ef9a492f2c624fd45ddde6135ec4282610d1d565b6107a4600080516020615835833981519152336109e2565b806107b257506107b2610a07565b6107ce5760405162461bcd60e51b81526004016104c990614a6c565b6104db8161168e565b6104db816116ed565b60006107ec83836116f7565b9392505050565b60006107ec83836109e2565b610807610a07565b6108235760405162461bcd60e51b81526004016104c990614aa3565b6108378c8c8c8c8c8c8c8c8c8c8c8c61171c565b505050505050505050505050565b61084d610a07565b6108695760405162461bcd60e51b81526004016104c990614aa3565b6104db60008051602061583583398151915282610d1d565b60008060006108908585611aba565b9250925092509250925092565b6108a5610a07565b6108c15760405162461bcd60e51b81526004016104c990614aa3565b6104db60008051602061583583398151915282610c8f565b6108e1610a07565b6108fd5760405162461bcd60e51b81526004016104c990614aa3565b61062b84848484611c69565b610911610a07565b61092d5760405162461bcd60e51b81526004016104c990614aa3565b6104db81611d36565b61094e600080516020615835833981519152336109e2565b8061095c575061095c610a07565b6109785760405162461bcd60e51b81526004016104c990614a6c565b6105a9838383611d82565b600061058782611eb4565b61099782610cf1565b6109a081610d13565b6105a98383610c8f565b6109b2610a07565b6109ce5760405162461bcd60e51b81526004016104c990614aa3565b6109db8585858585611ed8565b5050505050565b6000828152600080516020615815833981519152602052604081206107ec9083612064565b60006106b77fdf8b4c520ffe197c5343c6f5aec59570151ef9a492f2c624fd45ddde6135ec42336109e2565b610a4d610a486101a083016101808401614377565b612086565b610a62610a5d6020830183614377565b6120ea565b6000610a6c61213b565b6003016001610a7961213b565b6006016000610a8b6020870187614377565b6001600160801b0319168152602081019190915260400160002054610ab09190614af0565b81548110610ac057610ac0614b03565b90600052602060002090600502019050610ad861213b565b6002015460a0830135610ae961213b565b60010154610af79190614b19565b1115610b545760405162461bcd60e51b815260206004820152602660248201527f4973737565723a20496e73756666696369656e742073686172657320617574686044820152651bdc9a5e995960d21b60648201526084016104c9565b80600401548260a001358260030154610b6d9190614b19565b1115610bce5760405162461bcd60e51b815260206004820152602a60248201527f53746f636b436c6173733a20496e73756666696369656e742073686172657320604482015269185d5d1a1bdc9a5e995960b21b60648201526084016104c9565b610bd661213b565b6005018054906000610be783614b2c565b919050555061052a610bf761213b565b60050154610c0484614b93565b61215f565b610c19610a486020840184614377565b610c2c610a5d6040840160208501614377565b610c5281610c3d6020850185614377565b610c4d6040860160208701614377565b612188565b610c5a61213b565b6005018054906000610c6b83614b2c565b919050555061052a82610c7d90614d63565b610c8561213b565b6005015483612274565b600082815260008051602061581583398151915260205260409020610cb49082612368565b5060405133906001600160a01b0383169084907ff6391f5c32d9c69d2a47ea670b442974b53935d1edc7fd64eb21e047a839171b90600090a45050565b6000908152600080516020615815833981519152602052604090206002015490565b6104db813361237d565b600082815260008051602061581583398151915260205260409020610d4290826123df565b5060405133906001600160a01b0383169084907f2f8788117e7eff1d82e926ec794901d17c78024a50270940304540a733656f0d90600090a45050565b60006060600080600080610d9161213b565b6001600160801b03198816600090815260069190910160205260409020541115610f23576000610dbf61213b565b6003016001610dcc61213b565b6001600160801b03198a1660009081526006919091016020526040902054610df49190614af0565b81548110610e0457610e04614b03565b90600052602060002090600502016040518060a00160405290816000820160009054906101000a900460801b6001600160801b0319166001600160801b0319168152602001600182018054610e5890614e1b565b80601f0160208091040260200160405190810160405280929190818152602001828054610e8490614e1b565b8015610ed15780601f10610ea657610100808354040283529160200191610ed1565b820191906000526020600020905b815481529060010190602001808311610eb457829003601f168201915b50505050508152602001600282015481526020016003820154815260200160048201548152505090508060000151816020015182604001518360600151846080015195509550955095509550506105cb565b5050604080516020810190915260008082529350915082905080806105cb565b803515801590610f565750602081013515155b8015610f7057506000610f6c6040830183614e4f565b9050115b610fbc5760405162461bcd60e51b815260206004820152601d60248201527f496e76616c69642053656564696e672053686172657320506172616d7300000060448201526064016104c9565b8035610fc661213b565b600201556020810135610fd761213b565b6001015560005b610feb6040830183614e4f565b905081101561052a5760006110036040840184614e4f565b8381811061101357611013614b03565b6110299260206060909202019081019150614377565b9050611034816120ea565b6000600161104061213b565b6001600160801b03198416600090815260069190910160205260409020546110689190614af0565b90506110776040850185614e4f565b8481811061108757611087614b03565b9050606002016020013561109961213b565b60030182815481106110ad576110ad614b03565b60009182526020909120600460059092020101556110ce6040850185614e4f565b848181106110de576110de614b03565b905060600201604001356110f061213b565b600301828154811061110457611104614b03565b9060005260206000209060050201600301819055505050808061112690614b2c565b915050610fde565b61113784612086565b611140836120ea565b61114861213b565b600501805490600061115983614b2c565b9190505550600061116861213b565b6001600160801b031980871660009081526007929092016020908152604080842087841685528252928390208351608080820186528254901b909316835260018101549183019190915260028101549282019290925260039091015464ffffffffff16606082015290506111db816123f4565b6109db6111e661213b565b600501548484612419565b611201610a486020840184614377565b611214610a5d6040840160208501614377565b61121c61213b565b600501805490600061122d83614b2c565b919050555060006040518060e0016040528061124761213b565b6005015481526020018381526020018460000160208101906112699190614377565b6001600160801b031916815260200184602001602081019061128b9190614377565b6001600160801b03191681526020016112aa6060860160408701614377565b6001600160801b03191681526020016112c66060860186614e97565b6112cf91614ee0565b81526020016112e16080860186614eed565b8080601f016020809104026020016040519081016040528093929190818152602001838380828437600092019190915250505091525090506105a98161243e565b61132b846125e7565b61133361213b565b6040805160a0810182526001600160801b031987811682526020808301888152938301879052600060608401819052608080850188905260039690960180546001808201835591835292909120845160059093020180549093169190951c178155915190928201906113a59082614f79565b5060408201518160020155606082015181600301556080820151816004015550506113ce61213b565b600301546113da61213b565b6001600160801b0319861660009081526006919091016020526040908190209190915551829061140b908590615038565b604051908190038120838252906001600160801b03198716907fc7496d70298fcc793e1d058617af680232585e302f0185b14bba498b247a9c1d9060200160405180910390a450505050565b600080806114837fe8b8fb71d93f41355a02f1dbf23faef64e2c875ab61bf9525ac127ba9398eae85490565b905060005b8181101561155c5760005b61149b61213b565b60030154811015611549576114ae61213b565b60080160006114bc8461263a565b6001600160801b0319166001600160801b031916815260200190815260200160002060006114e861213b565b60030183815481106114fc576114fc614b03565b600091825260208083206005929092029091015460801b6001600160801b03191683528201929092526040019020546115359085614b19565b93508061154181614b2c565b915050611493565b508061155481614b2c565b915050611488565b509092915050565b61156d86612086565b61157685612086565b61157f846120ea565b61158761213b565b600501805490600061159883614b2c565b919050555060006040518060e00160405280886001600160801b0319168152602001876001600160801b0319168152602001866001600160801b031916815260200185151581526020018481526020018381526020016115f661213b565b600501549052905061160781612689565b50505050505050565b600080600080600061162061213b565b6001600160801b0319978816600090815260079190910160209081526040808320989099168252969096525050509290912080546001820154600283015460039093015460809290921b9590945091925064ffffffffff1690565b600061168561213b565b60030154919050565b61169e610a486020830183614377565b6116b1610a5d6040830160208401614377565b6116b961213b565b60050180549060006116ca83614b2c565b91905055506104db816116dc90614d63565b6116e461213b565b60050154612972565b6104db8133610c8f565b6000828152600080516020615815833981519152602052604081206107ec9083612a65565b8a8914801561172a57508887145b801561173557508685145b801561174057508483145b801561174b57508281145b6117a65760405162461bcd60e51b815260206004820152602660248201527f496e70757420617272617973206d7573742068617665207468652073616d65206044820152650d8cadccee8d60d31b60648201526084016104c9565b60005b8b811015611aab576117db8d8d838181106117c6576117c6614b03565b9050602002016020810190610a489190614377565b6118058989838181106117f0576117f0614b03565b9050602002016020810190610a5d9190614377565b60405180608001604052808a8a8481811061182257611822614b03565b90506020020160208101906118379190614377565b6001600160801b031916815260200188888481811061185857611858614b03565b90506020020135815260200186868481811061187657611876614b03565b90506020020135815260200184848481811061189457611894614b03565b90506020020160208101906118a99190615054565b64ffffffffff1690526118ba61213b565b60070160008f8f858181106118d1576118d1614b03565b90506020020160208101906118e69190614377565b6001600160801b0319166001600160801b031916815260200190815260200160002060008d8d8581811061191c5761191c614b03565b90506020020160208101906119319190614377565b6001600160801b0319908116825260208083019390935260409182016000208451815490921660809290921c91909117815591830151600183015582015160028201556060909101516003909101805464ffffffffff191664ffffffffff9092169190911790556119a061213b565b60080160008e8e848181106119b7576119b7614b03565b90506020020160208101906119cc9190614377565b6001600160801b0319166001600160801b031916815260200190815260200160002060008a8a84818110611a0257611a02614b03565b9050602002016020810190611a179190614377565b6001600160801b031916815260208101919091526040016000208b8b83818110611a4357611a43614b03565b9050602002016020810190611a589190614377565b81546001808201845560009384526020909320600282040180546001600160801b03949092166010026101000a9384021990911660809290921c9290920217905580611aa381614b2c565b9150506117a9565b50505050505050505050505050565b600080600080611ac861213b565b6001600160801b031980881660009081526008929092016020908152604080842092891684529181529181902080548251818502810185019093528083529192909190830182828015611b6757602002820191906000526020600020906000905b82829054906101000a900460801b6001600160801b03191681526020019060100190602082600f01049283019260010382029150808411611b295790505b505050505090506000806000805b8451811015611c59576000611b8861213b565b6001600160801b03198c166000908152600791909101602052604081208751909190889085908110611bbc57611bbc614b03565b60200260200101516001600160801b0319166001600160801b0319168152602001908152602001600020905080600201548160010154611bfc919061507b565b611c069086614b19565b9450806001015484611c189190614b19565b600382015490945064ffffffffff808516911611611c365782611c43565b600381015464ffffffffff165b9250508080611c5190614b2c565b915050611b75565b5091955093509150509250925092565b611c7161213b565b60010154841015611d005760405162461bcd60e51b815260206004820152604d60248201527f496e73756666696369656e74497373756572536861726573417574686f72697a60448201527f65643a207368617265735f6973737565642065786365656473206e657753686160648201526c1c995cd05d5d1a1bdc9a5e9959609a1b608482015260a4016104c9565b611d0861213b565b6005018054906000611d1983614b2c565b919050555061062b611d2961213b565b6005015485858585612a71565b611d3e61213b565b6040805160208082019092526001600160801b031993841681526004929092018054600181018255600091825291902091519101805490921660809190911c179055565b611d92610a486020850185614377565b611da5610a5d6040850160208601614377565b611dad61213b565b6005018054906000611dbe83614b2c565b919050555060006040518060e00160405280611dd861213b565b600501548152602001848152602001856000016020810190611dfa9190614377565b6001600160801b0319168152602001856020016020810190611e1c9190614377565b6001600160801b0319168152602001611e3b6060870160408801614377565b6001600160801b0319168152602001611e576060870187614e97565b611e6091614ee0565b8152602001611e726080870187614eed565b8080601f0160208091040260200160405190810160405280939291908181526020018383808284376000920191909152505050915250905061062b8183612ab3565b60008181526000805160206158158339815191526020526040812061058790612c44565b6000611ee261213b565b6003016001611eef61213b565b6001600160801b0319891660009081526006919091016020526040902054611f179190614af0565b81548110611f2757611f27614b03565b90600052602060002090600502019050611f40866120ea565b611f4861213b565b60020154851115611ff65760405162461bcd60e51b815260206004820152606660248201527f496e73756666696369656e7453746f636b436c6173735368617265734175746860448201527f6f72697a65643a2073746f636b20636c61737320617574686f72697a6564207360648201527f68617265732065786365656473206973737565722073686172657320617574686084820152651bdc9a5e995960d21b60a482015260c4016104c9565b611ffe61213b565b600501805490600061200f83614b2c565b9190505550600061202f61202161213b565b60050154878787878c612c4e565b90508582600401819055506116076002826040516020016120509190615170565b604051602081830303815290604052612cfb565b6001600160a01b038116600090815260018301602052604081205415156107ec565b6001600160801b0319811660009081527fe8b8fb71d93f41355a02f1dbf23faef64e2c875ab61bf9525ac127ba9398eaea602052604081205490036104db5760405163b4586dfb60e01b81526001600160801b0319821660048201526024016104c9565b6120f261213b565b6001600160801b031982166000908152600691909101602052604081205490036104db57604051630b2b152360e21b81526001600160801b0319821660048201526024016104c9565b7f0e91fe0d021f7d5ef0a4335f5a3541fa8bc83a3d8815ed2f3958ffe5ef1e9ed590565b61217181608001518260600151612e00565b600061217d8284612e33565b90506105a981612eba565b82516000036121aa576040516309ef2e0760e01b815260040160405180910390fd5b6000836000815181106121bf576121bf614b03565b6020026020010151905060006121d361213b565b6001600160801b031980861660009081526007929092016020908152604080842086841685528252928390208351608080820186528254901b9093168352600181015491830182905260028101549383019390935260039092015464ffffffffff16606082015291501580612256575080516001600160801b0319848116911614155b156109db57604051632b2eaacf60e21b815260040160405180910390fd5b600061227e61213b565b84516001600160801b0319908116600090815260079290920160209081526040808420818901805185168652908352938190208151608080820184528254901b90941684526001810154928401929092526002820154908301526003015464ffffffffff166060820152855191519092506122fa9183916130ba565b600061231584866060015187604001518689608001516130f3565b905061232d60068260405160200161205091906151c8565b61233f856020015183602001516131a8565b61235185600001518660400151613244565b6109db85600001518660200151876040015161329c565b60006107ec836001600160a01b0384166132f2565b61238782826109e2565b61052a5761239d816001600160a01b03166133b7565b6123a88360206133c9565b6040516020016123b992919061527a565b60408051601f198184030181529082905262461bcd60e51b82526104c9916004016152ef565b60006107ec836001600160a01b038416613507565b80602001516000036104db57604051632b2eaacf60e21b815260040160405180910390fd5b600061242684838561354a565b905061062b6003826040516020016120509190615302565b600061244861213b565b604080840180516001600160801b03199081166000908152600794909401602090815283852060808089018051851688529183529585902085518088018752815490971b90931686526001830154918601919091526002820154938501939093526003015464ffffffffff1660608401525190519192506124cb918391906130ba565b6124dd816020015183602001516135d6565b6000826020015182602001516124f39190614af0565b905060008115612570576040805160e081018252858201516001600160801b03199081168083526000602084018190526060808a015190931684860152600192840192909252608083018690529286015160a0830152865160c0830152909161255d908390613601565b905061256881612eba565b604001519150505b6000612594856000015186602001518760a0015188608001518960c00151876137c2565b90506125ac600482604051602001612050919061535e565b6125be856060015185602001516131a8565b6125d085604001518660800151613244565b6109db85604001518660600151876080015161329c565b60006125f161213b565b6001600160801b031983166000908152600691909101602052604090205411156104db57604051631339dd8760e21b81526001600160801b0319821660048201526024016104c9565b60007fe8b8fb71d93f41355a02f1dbf23faef64e2c875ab61bf9525ac127ba9398eae880548390811061266f5761266f614b03565b600091825260209091206003909102015460801b92915050565b6126968160600151613878565b6126a881608001518260a00151612e00565b60006126b261213b565b82516001600160801b0319908116600090815260089290920160209081526040808420818701519093168452919052902054116127315760405162461bcd60e51b815260206004820152601c60248201527f4e6f206163746976652073656375726974792069647320666f756e640000000060448201526064016104c9565b600061273b61213b565b82516001600160801b031990811660009081526008929092016020908152604080842081870151909316845291815291819020805482518185028101850190935280835291929091908301828280156127e057602002820191906000526020600020906000905b82829054906101000a900460801b6001600160801b03191681526020019060100190602082600f010492830192600103820291508084116127a25790505b5050505050905060008060005b83518110156128a457600061280061213b565b86516001600160801b031916600090815260079190910160205260408120865190919087908590811061283557612835614b03565b60200260200101516001600160801b0319166001600160801b031916815260200190815260200160002090508060010154846128719190614b19565b935061287e600184614b19565b92508560800151841061289157506128a4565b508061289c81614b2c565b9150506127ed565b506128b38285608001516135d6565b608084015160005b8281101561070c5760008582815181106128d7576128d7614b03565b6020026020010151905060006128eb61213b565b88516001600160801b03199081166000908152600792909201602090815260408084209286168452919052902060018101549091508490811061292f575060018101545b608089018190526129408984613896565b61294a8186614af0565b94508460000361295c5750505061070c565b505050808061296a90614b2c565b9150506128bb565b600061297c61213b565b83516001600160801b0319908116600090815260079290920160209081526040808420818801805185168652908352938190208151608080820184528254901b90941684526001810154928401929092526002820154908301526003015464ffffffffff166060820152845191519092506129f89183916130ba565b6000612a1283856060015186604001518760800151613a4c565b9050612a2a6008826040516020016120509190615400565b612a3c846020015183602001516131a8565b612a4e84600001518560400151613244565b61062b84600001518560200151866040015161329c565b60006107ec8383613ae4565b6000612a8c8686868686612a8361213b565b5460801b613b30565b905084612a9761213b565b6002015560405161070c90600190612050908490602001615170565b6000612abd61213b565b604080850180516001600160801b0319908116600090815260079490940160209081528385206080808a018051851688529183529585902085518088018752815490971b90931686526001830154918601919091526002820154938501939093526003015464ffffffffff166060840152519051919250612b40918391906130ba565b612b52816020015184602001516135d6565b600083602001518260200151612b689190614af0565b905060008115612be5576040805160e081018252868201516001600160801b03199081168083526000602084018190526060808b015190931684860152600192840192909252608083018690529286015160a0830152875160c08301529091612bd2908390613601565b9050612bdd81612eba565b604001519150505b6000612bf18686613bdd565b9050612c09600782604051602001612050919061547a565b612c1b866060015185602001516131a8565b612c2d86604001518760800151613244565b61070c86604001518760600151886080015161329c565b6000610587825490565b612c916040518060c0016040528060006001600160801b031916815260200160608152602001600081526020016060815260200160608152602001606081525090565b6000612c9d8389613cf9565b90506040518060c00160405280826001600160801b03191681526020016040518060600160405280602b815260200161587b602b91398152602001888152602001878152602001868152602001858152509150509695505050505050565b7f71f1fe694a9df70ef705bc11814f6781de2e3fa2c2b924be3586437aea382f5c6040518060400160405280846009811115612d3957612d3961552e565b8152602090810184905282546001818101855560009485529190932082516002909402018054929390929091839160ff191690836009811115612d7e57612d7e61552e565b021790555060208201516001820190612d979082614f79565b5050507f9f88fb156974def70024c0bee5f2fefd94c4f8141b6468bd9e49eb0425639845612de27f71f1fe694a9df70ef705bc11814f6781de2e3fa2c2b924be3586437aea382f5c90565b54604051612df4919085908590615544565b60405180910390a15050565b811580612e0b575080155b1561052a5760405163041e800160e21b815260048101839052602481018290526044016104c9565b612e3b614064565b6000612e4c84610160015184613cf9565b90506000612e5e856000015185613cf9565b604080516080810182526001600160801b0319948516815281518083018352601181527054585f53544f434b5f49535355414e434560781b60208281019190915282015293909116908301525060608101849052905092915050565b612ec261213b565b6060828101805161016001516001600160801b03199081166000908152600894909401602090815260408086208451518416875282528086208188015181546001808201845592895297849020600289040180546001600160801b03939099166010026101000a92830219909816608091821c92909202919091179096558051808701825284515190931683528351909501519082015290518201519281019290925281014264ffffffffff169052612f7961213b565b60608381015161016001516001600160801b0319908116600090815260079390930160209081526040808520818801518416865282528085208651815490941660809490941c93909317835590850151600183015584015160028201559201516003909201805464ffffffffff191664ffffffffff9093169290921790915561300061213b565b600301600161300d61213b565b6060850151516001600160801b0319166000908152600691909101602052604090205461303a9190614af0565b8154811061304a5761304a614b03565b9060005260206000209060050201905081606001516080015161306b61213b565b600101546130799190614b19565b61308161213b565b60010155606082015160800151600382015461309d9190614b19565b600382015560405161052a90600590612050908590602001615581565b82602001516000036105a957604051634213860d60e11b81526001600160801b03198084166004830152821660248201526044016104c9565b6040805160e08101825260008082526060602083018190529282018390528282018190526080820183905260a082015260c081019190915260006131378588613cf9565b6040805160e0810182526001600160801b0319928316815281518083018352601381527254585f53544f434b5f524549535355414e434560681b60208083019190915282015290810197909752949094166060860152506080840191909152600060a084015260c083015250919050565b60006131b261213b565b60030160016131bf61213b565b6001600160801b03198616600090815260069190910160205260409020546131e79190614af0565b815481106131f7576131f7614b03565b906000526020600020906005020190508161321061213b565b6001015461321e9190614af0565b61322661213b565b60010155600381015461323a908390614af0565b6003909101555050565b61324c61213b565b6001600160801b0319928316600090815260079190910160209081526040808320938516835292905290812080549092168255600182018190556002820155600301805464ffffffffff19169055565b60006132a661213b565b6001600160801b03198086166000908152600892909201602090815260408084209287168452919052812091506132dd8284613d46565b905060001981146109db576109db8282613dc6565b600081815260018301602052604081205480156133b05783546000908590600019810190811061332457613324614b03565b906000526020600020015490508085600001600184038154811061334a5761334a614b03565b600091825260208083209091019290925591825260018601905260409020819055835484908061337c5761337c615744565b6001900381819060005260206000200160009055905583600101600084815260200190815260200160002060009055600191505b5092915050565b60606105876001600160a01b03831660145b60011b60020160606000826001600160401b038111156133eb576133eb614181565b6040519080825280601f01601f191660200182016040528015613415576020820181803683370190505b509050600360fc1b8160008151811061343057613430614b03565b60200101906001600160f81b031916908160001a905350600f60fb1b8160018151811061345f5761345f614b03565b60200101906001600160f81b031916908160001a9053505b60028311156134e857600019909201916f181899199a1a9b1b9c1cb0b131b232b360811b600f8516601081106134af576134af614b03565b1a60f81b8184815181106134c5576134c5614b03565b60200101906001600160f81b031916908160001a905350600484901c9350613477565b83156107ec576040516355a04ff160e11b815260040160405180910390fd5b6000818152600183016020526040812054610587575081546001808201845560008481526020808220909301849055845493815293810190915260409092205590565b604080516080810182526000808252606060208301819052928201528181019190915260006135798386613cf9565b604080516080810182526001600160801b0319928316815281518083018352601381527254585f53544f434b5f414343455054414e434560681b602080830191909152820152949091169084015250506060810191909152919050565b8082101561052a5760405163658ec5dd60e11b815260048101839052602481018290526044016104c9565b613609614064565b6040805180820190915260008082526020820152600061362d848660c00151613cf9565b9050600061364386604001518760c00151613cf9565b6040805161020081018252888201516001600160801b03191681526000602080830182905282840188905260a0808c015160608501526080808d015190850152830182905260c083018290528351828152808201855260e084015283518082018552828152610100840152835182815290810190935292935090610120820190836136de565b60608152602001906001900390816136c95790505b50815260408051602080820183526000808352818501929092526001600160801b03198b16838501528251808201845282815260608501528251808201845282815260808501528251808201845282815260a0850152825182815290810190925260c09092019161375f565b606081526020019060019003908161374a5790505b509052604080516080810182526001600160801b0319958616815281518083018352601181527054585f53544f434b5f49535355414e434560781b6020828101919091528201529390941693830193909352506060810191909152949350505050565b6040805160e08101825260008082526060602083018190529282018190528282018390526080820181905260a082019290925260c08101829052906138078589613cf9565b6040805160e0810182526001600160801b031992831681528151808301835260158152742a2c2fa9aa27a1a5afa1a0a721a2a62620aa24a7a760591b6020808301919091528201529081019890985260608801969096525050918316608085015260a08401521660c0820152919050565b806104db5760405163d27b8e0f60e01b815260040160405180910390fd5b60006138a061213b565b83516001600160801b031990811660009081526007929092016020908152604080842086841685528252928390208351608080820186528254811b909416815260018201549281018390526002820154948101949094526003015464ffffffffff16606084015290850151919250613917916135d6565b6000613927848560200151613601565b905061393281612eba565b6000846080015183602001516139489190614af0565b6040805160e08101825287516001600160801b031990811682526020808a015182169083015288830151168183015260608089015115159082015260808089015190820190815260a0808a015190830190815260c0808b015190840152908490529186015190915290915060009082156139de5760006139cc828360000151613601565b90506139d781612eba565b6040015191505b60006139f98860c00151896080015189886040015187613f00565b9050613a11600982604051602001612050919061575a565b613a23886040015187602001516131a8565b8751613a2f9088613244565b613a42886000015189604001518961329c565b5050505050505050565b6040805160a08101825260008082526060602083018190529282018390528282015260808101919091526000613a828487613cf9565b6040805160a0810182526001600160801b031992831681528151808301835260138152722a2c2fa9aa27a1a5afa922aa2920a1aa24a7a760691b6020808301919091528201529081019690965293909316606085015250608083015250919050565b81546000908210613b085760405163e637bf3b60e01b815260040160405180910390fd5b826000018281548110613b1d57613b1d614b03565b9060005260206000200154905092915050565b613b736040518060c0016040528060006001600160801b031916815260200160608152602001600081526020016060815260200160608152602001606081525090565b6000613b7f8389613cf9565b90506040518060c00160405280826001600160801b0319168152602001604051806060016040528060268152602001615855602691398152602001888152602001878152602001868152602001858152509150509695505050505050565b613c4360405180610100016040528060006001600160801b0319168152602001606081526020016060815260200160006001600160801b03191681526020016060815260200160006001600160801b031916815260200160008152602001600081525090565b6000613c5784608001518560000151613cf9565b9050604051806101000160405280826001600160801b03191681526020016040518060400160405280601381526020017254585f53544f434b5f5245505552434841534560681b81525081526020018560a00151815260200185608001516001600160801b03191681526020018560c00151815260200185604001516001600160801b0319168152602001856020015181526020018481525091505092915050565b604080516001600160801b0319939093166020808501919091524260308501524460508501526070808501939093528151808503909301835260909093019052805191012090565b919050565b6000805b8354811015613dbb57826001600160801b031916848281548110613d7057613d70614b03565b90600052602060002090600291828204019190066010029054906101000a900460801b6001600160801b03191603613da9579050610587565b80613db381614b2c565b915050613d4a565b506000199392505050565b81548110613e0c5760405162461bcd60e51b8152602060048201526013602482015272496e646578206f7574206f6620626f756e647360681b60448201526064016104c9565b805b8254613e1c90600190614af0565b811015613eba5782613e2f826001614b19565b81548110613e3f57613e3f614b03565b90600052602060002090600291828204019190066010029054906101000a900460801b838281548110613e7457613e74614b03565b90600052602060002090600291828204019190066010026101000a8154816001600160801b03021916908360801c02179055508080613eb290614b2c565b915050613e0e565b5081805480613ecb57613ecb615744565b60008281526020902060026000199092019182040180546001600160801b03601060018516026101000a021916905590555050565b604080516101008101825260008082526060602083018190528284018290528083018190526080830182905260a0830181905260c0830182905260e08301528251600180825281850190945291929091908160200160208202803683370190505090508381600081518110613f7757613f77614b03565b6001600160801b0319909216602092830291909101909101526000613f9c8689613cf9565b60408051610100810182526001600160801b0319831681528151808301835260118152702a2c2fa9aa27a1a5afaa2920a729a322a960791b60208281019190915282015290810189905290915060608101600060405190808252806020026020018201604052801561402257816020015b606081526020019060019003908161400d5790505b5081526001600160801b031980891660208084019190915260408051918201815260008252830152861660608201526080019290925250905095945050505050565b60408051608081018252600080825260606020830181905292820152908101614129604080516102008101825260008082526020808301829052835180850185528281529081019190915290918201908152602001600081526020016000815260200160006001600160801b0319168152602001600081526020016060815260200160608152602001606081526020016060815260200160006001600160801b0319168152602001606081526020016060815260200160608152602001606081525090565b905290565b60006020828403121561414057600080fd5b81356001600160401b0381111561415657600080fd5b820161022081850312156107ec57600080fd5b600060a0828403121561417b57600080fd5b50919050565b634e487b7160e01b600052604160045260246000fd5b60405161020081016001600160401b03811182821017156141ba576141ba614181565b60405290565b604051601f8201601f191681016001600160401b03811182821017156141e8576141e8614181565b604052919050565b60006001600160401b0382111561420957614209614181565b5060051b60200190565b80356001600160801b031981168114613d4157600080fd5b600082601f83011261423c57600080fd5b8135602061425161424c836141f0565b6141c0565b82815260059290921b8401810191818101908684111561427057600080fd5b8286015b848110156142925761428581614213565b8352918301918301614274565b509695505050505050565b600080604083850312156142b057600080fd5b82356001600160401b03808211156142c757600080fd5b6142d386838701614169565b935060208501359150808211156142e957600080fd5b506142f68582860161422b565b9150509250929050565b80356001600160a01b0381168114613d4157600080fd5b60006020828403121561432957600080fd5b6107ec82614300565b60006020828403121561434457600080fd5b5035919050565b6000806040838503121561435e57600080fd5b8235915061436e60208401614300565b90509250929050565b60006020828403121561438957600080fd5b6107ec82614213565b6001600160801b0319169052565b60005b838110156143bb5781810151838201526020016143a3565b50506000910152565b600081518084526143dc8160208601602086016143a0565b601f01601f19169290920160200192915050565b6001600160801b03198616815260a06020820152600061441360a08301876143c4565b604083019590955250606081019290925260809091015292915050565b60006020828403121561444257600080fd5b81356001600160401b0381111561445857600080fd5b8201606081850312156107ec57600080fd5b600082601f83011261447b57600080fd5b81356001600160401b0381111561449457614494614181565b6144a7601f8201601f19166020016141c0565b8181528460208386010111156144bc57600080fd5b816020850160208301376000918101602001919091529392505050565b60006144e761424c846141f0565b8381529050602080820190600585901b84018681111561450657600080fd5b845b818110156145415780356001600160401b038111156145275760008081fd5b6145338982890161446a565b855250928201928201614508565b505050509392505050565b600082601f83011261455d57600080fd5b6107ec838335602085016144d9565b6000806000806080858703121561458257600080fd5b61458b85614213565b935061459960208601614213565b92506145a760408601614213565b915060608501356001600160401b038111156145c257600080fd5b6145ce8782880161454c565b91505092959194509250565b600080604083850312156145ed57600080fd5b82356001600160401b0381111561460357600080fd5b61460f85828601614169565b95602094909401359450505050565b6000806000806080858703121561463457600080fd5b61463d85614213565b935060208501356001600160401b0381111561465857600080fd5b6146648782880161446a565b949794965050505060408301359260600135919050565b60008060008060008060c0878903121561469457600080fd5b61469d87614213565b95506146ab60208801614213565b94506146b960408801614213565b9350606087013580151581146146ce57600080fd5b9598949750929560808101359460a0909101359350915050565b600080604083850312156146fb57600080fd5b61470483614213565b915061436e60208401614213565b60006020828403121561472457600080fd5b81356001600160401b0381111561473a57600080fd5b61474684828501614169565b949350505050565b6000806040838503121561476157600080fd5b50508035926020909101359150565b60008083601f84011261478257600080fd5b5081356001600160401b0381111561479957600080fd5b6020830191508360208260051b85010111156147b457600080fd5b9250929050565b60008060008060008060008060008060008060c08d8f0312156147dd57600080fd5b6001600160401b038d3511156147f257600080fd5b6147ff8e8e358f01614770565b909c509a506001600160401b0360208e0135111561481c57600080fd5b61482c8e60208f01358f01614770565b909a5098506001600160401b0360408e0135111561484957600080fd5b6148598e60408f01358f01614770565b90985096506001600160401b0360608e0135111561487657600080fd5b6148868e60608f01358f01614770565b90965094506001600160401b0360808e013511156148a357600080fd5b6148b38e60808f01358f01614770565b90945092506001600160401b0360a08e013511156148d057600080fd5b6148e08e60a08f01358f01614770565b81935080925050509295989b509295989b509295989b565b6000806000806080858703121561490e57600080fd5b8435935060208501356001600160401b038082111561492c57600080fd5b6149388883890161454c565b9450604087013591508082111561494e57600080fd5b61495a8883890161446a565b9350606087013591508082111561497057600080fd5b506145ce8782880161446a565b60008060006060848603121561499257600080fd5b83356001600160401b038111156149a857600080fd5b6149b486828701614169565b9660208601359650604090950135949350505050565b600080600080600060a086880312156149e257600080fd5b6149eb86614213565b94506020860135935060408601356001600160401b0380821115614a0e57600080fd5b614a1a89838a0161454c565b94506060880135915080821115614a3057600080fd5b614a3c89838a0161446a565b93506080880135915080821115614a5257600080fd5b50614a5f8882890161446a565b9150509295509295909350565b6020808252601b908201527f446f6573206e6f742068617665206f70657261746f7220726f6c650000000000604082015260600190565b60208082526018908201527f446f6573206e6f7420686176652061646d696e20726f6c650000000000000000604082015260600190565b634e487b7160e01b600052601160045260246000fd5b8181038181111561058757610587614ada565b634e487b7160e01b600052603260045260246000fd5b8082018082111561058757610587614ada565b600060018201614b3e57614b3e614ada565b5060010190565b600060408284031215614b5757600080fd5b604051604081018181106001600160401b0382111715614b7957614b79614181565b604052823581526020928301359281019290925250919050565b60006102208236031215614ba657600080fd5b614bae614197565b614bb783614213565b8152614bc560208401614213565b6020820152614bd73660408501614b45565b60408201526080830135606082015260a08301356080820152614bfc60c08401614213565b60a082015260e083013560c0820152610100808401356001600160401b0380821115614c2757600080fd5b614c333683880161422b565b60e085015261012091508186013581811115614c4e57600080fd5b614c5a3682890161446a565b848601525061014092508286013581811115614c7557600080fd5b614c813682890161454c565b838601525061016091508186013581811115614c9c57600080fd5b614ca83682890161446a565b84860152506101809250614cbd838701614213565b828501526101a091508186013581811115614cd757600080fd5b614ce33682890161446a565b84860152506101c092508286013581811115614cfe57600080fd5b614d0a3682890161446a565b83860152506101e091508186013581811115614d2557600080fd5b614d313682890161446a565b8486015250610200860135925080831115614d4b57600080fd5b50614d583683870161454c565b908301525092915050565b600060a08236031215614d7557600080fd5b60405160a081016001600160401b038282108183111715614d9857614d98614181565b81604052614da585614213565b8352614db360208601614213565b6020840152614dc460408601614213565b60408401526060850135915080821115614ddd57600080fd5b614de93683870161454c565b60608401526080850135915080821115614e0257600080fd5b50614e0f3682860161446a565b60808301525092915050565b600181811c90821680614e2f57607f821691505b60208210810361417b57634e487b7160e01b600052602260045260246000fd5b6000808335601e19843603018112614e6657600080fd5b8301803591506001600160401b03821115614e8057600080fd5b60200191506060810236038213156147b457600080fd5b6000808335601e19843603018112614eae57600080fd5b8301803591506001600160401b03821115614ec857600080fd5b6020019150600581901b36038213156147b457600080fd5b60006107ec3684846144d9565b6000808335601e19843603018112614f0457600080fd5b8301803591506001600160401b03821115614f1e57600080fd5b6020019150368190038213156147b457600080fd5b601f8211156105a957600081815260208120601f850160051c81016020861015614f5a5750805b601f850160051c820191505b8181101561070c57828155600101614f66565b81516001600160401b03811115614f9257614f92614181565b614fa681614fa08454614e1b565b84614f33565b602080601f831160018114614fdb5760008415614fc35750858301515b600019600386901b1c1916600185901b17855561070c565b600085815260208120601f198616915b8281101561500a57888601518255948401946001909101908401614feb565b50858210156150285787850151600019600388901b60f8161c191681555b5050505050600190811b01905550565b6000825161504a8184602087016143a0565b9190910192915050565b60006020828403121561506657600080fd5b813564ffffffffff811681146107ec57600080fd5b808202811582820484141761058757610587614ada565b600081518084526020808501808196508360051b8101915082860160005b858110156150da5782840389526150c88483516143c4565b988501989350908401906001016150b0565b5091979650505050505050565b6001600160801b031981511682526000602082015160c0602085015261511060c08501826143c4565b905060408301516040850152606083015184820360608601526151338282615092565b9150506080830151848203608086015261514d82826143c4565b91505060a083015184820360a086015261516782826143c4565b95945050505050565b6020815260006107ec60208301846150e7565b600081518084526020808501945080840160005b838110156151bd5781516001600160801b03191687529582019590820190600101615197565b509495945050505050565b602081526001600160801b031982511660208201526000602083015160e060408401526151f96101008401826143c4565b90506040840151601f19808584030160608601526152178383615092565b92506060860151915061522d6080860183614392565b60808601519150808584030160a08601526152488383615183565b925060a0860151915061525e60c0860183614392565b60c08601519150808584030160e08601525061516782826143c4565b7f416363657373436f6e74726f6c3a206163636f756e74200000000000000000008152600083516152b28160178501602088016143a0565b7001034b99036b4b9b9b4b733903937b6329607d1b60179184019182015283516152e38160288401602088016143a0565b01602801949350505050565b6020815260006107ec60208301846143c4565b6020815260006001600160801b031980845116602084015260208401516080604085015261533360a08501826143c4565b905081604086015116606085015260608501519150601f198482030160808501526151678183615092565b6020815260006001600160801b0319808451166020840152602084015160e060408501526153906101008501826143c4565b9050604085015160608501526060850151601f19808684030160808701526153b88383615092565b92508360808801511660a087015260a08701519350808684030160c087015250506153e381836143c4565b91505060c08401516153f860e0850182614392565b509392505050565b6020815260006001600160801b0319808451166020840152602084015160a0604085015261543160c08501826143c4565b90506040850151601f198086840301606087015261544f8383615092565b925083606088015116608087015260808701519350808684030160a0870152505061516781836143c4565b6020815261548c602082018351614392565b600060208301516101008060408501526154aa6101208501836143c4565b91506040850151601f19808685030160608701526154c88483615092565b9350606087015191506154de6080870183614392565b60808701519150808685030160a0870152506154fa83826143c4565b92505060a085015161550f60c0860182614392565b5060c085015160e085015260e085015181850152508091505092915050565b634e487b7160e01b600052602160045260246000fd5b8381526000600a841061556757634e487b7160e01b600052602160045260246000fd5b8360208301526060604083015261516760608301846143c4565b6020815260006001600160801b03198084511660208401526020840151608060408501526155b260a08501826143c4565b905081604086015116606085015260608501519150601f198482030160808501526102206155e1828451614392565b60208301516155f36020840182614392565b506040830151615610604084018280518252602090810151910152565b5060608301516080830152608083015160a083015260a083015161563760c0840182614392565b5060c083015160e083015260e0830151610100828185015261565b83850183615183565b9250808501519150506101208383038185015261567883836143c4565b925080850151915050610140838303818501526156958383615092565b925080850151915050610160838303818501526156b283836143c4565b9250808501519150506101806156ca81850183614392565b808501519150506101a0838303818501526156e583836143c4565b9250808501519150506101c08383038185015261570283836143c4565b9250808501519150506101e08383038185015261571f83836143c4565b94015183850361020085015293915061573a90508184615092565b9695505050505050565b634e487b7160e01b600052603160045260246000fd5b6020815261576c602082018351614392565b6000602083015161010080604085015261578a6101208501836143c4565b9150604085015160608501526060850151601f19808685030160808701526157b28483615092565b9350608087015191506157c860a0870183614392565b60a08701519150808685030160c08701526157e384836143c4565b935060c087015191506157f960e0870183614392565b60e087015191508086850301838701525061573a838261518356fed3889cc5458b268d0544e5534672df1296288ca3f93cbd39bd6f497a5c622811523a704056dcd17bcf83bed8b68c59416dac1119be77755efe3bde0a64e46e0c54585f4953535545525f415554484f52495a45445f5348415245535f41444a5553544d454e5454585f53544f434b5f434c4153535f415554484f52495a45445f5348415245535f41444a5553544d454e54","linkReferences":{}},"methodIdentifiers":{"acceptStock(bytes16,bytes16,bytes16,string[])":"3e4106f3","addAdmin(address)":"70480275","addOperator(address)":"9870d7fe","adjustIssuerAuthorizedShares(uint256,string[],string,string)":"b6238cd1","adjustStockClassAuthorizedShares(bytes16,uint256,string[],string,string)":"efb87519","cancelStock((bytes16,bytes16,bytes16,string[],string),uint256)":"438fd5d8","createStockClass(bytes16,string,uint256,uint256)":"4afd58fa","createStockLegendTemplate(bytes16)":"c1ad1d20","getActivePosition(bytes16,bytes16)":"63aefa5a","getAveragePosition(bytes16,bytes16)":"a1fc8196","getRoleAdmin(bytes32)":"248a9ca3","getRoleMember(bytes32,uint256)":"9010d07c","getRoleMemberCount(bytes32)":"ca15c873","getStockClassById(bytes16)":"371dc885","getTotalActiveSecuritiesCount()":"4d21af64","getTotalNumberOfStockClasses()":"6924e428","grantRole(bytes32,address)":"2f2ff15d","hasRole(bytes32,address)":"91d14854","issueStock((bytes16,bytes16,(uint256,uint256),uint256,uint256,bytes16,uint256,bytes16[],string,string[],string,bytes16,string,string,string,string[]))":"08748030","reissueStock((bytes16,bytes16,bytes16,string[],string),bytes16[])":"0c22d6bb","removeAdmin(address)":"1785f53c","removeOperator(address)":"ac8a584a","renounceRole(bytes32)":"8bb9c5bf","repurchaseStock((bytes16,bytes16,bytes16,string[],string),uint256,uint256)":"c93fed66","retractStockIssuance((bytes16,bytes16,bytes16,string[],string))":"7799960d","revokeRole(bytes32,address)":"d547741f","seedMultipleActivePositionsAndSecurityIds(bytes16[],bytes16[],bytes16[],uint256[],uint256[],uint40[])":"924a750e","seedSharesAuthorizedAndIssued(((uint256,uint256),(bytes16,uint256,uint256)[]))":"3cec69df","transferStock(bytes16,bytes16,bytes16,bool,uint256,uint256)":"61dc98b9"},"id":10}